:100000000000012071030000590300005B030000A1
:100010005D0300005F0300006103000000000000BA
:10002000000000000000000000000000630300006A
:100030006503000000000000670300006903000082
:100040006B0300006B0300006B0300006B030000F8
:10005000BD4A00006B030000791100006B03000033
:100060006B030000A11900006B0300006B0300008C
:100070006B0300006B0300006B0300006B030000C8
:100080006B030000050D00006B0300006B03000014
:100090006B0300006B0300006B0300006B030000A8
:1000A0006B0300006B0300006B0300006B03000098
:1000B0006B0300006B030000000000000000000064
:1000C0006B0300006B0300006B0300006B03000078
:1000D0006B0300006B0300006B03000000000000D6
:1000E0000000000000000000000000000000000010
:1000F0000000000000000000000000000000000000
:1001000000000000000000000000000000000000EF
:1001100000000000000000000000000000000000DF
:1001200000000000000000000000000000000000CF
:1001300000000000000000000000000000000000BF
:1001400000000000000000000000000000000000AF
:10015000000000000000000000000000000000009F
:10016000000000000000000000000000000000008F
:10017000000000000000000000000000000000007F
:10018000000000000000000000000000000000006F
:10019000000000000000000000000000000000005F
:1001A000000000000000000000000000000000004F
:1001B000000000000000000000000000000000003F
:1001C000000000000000000000000000000000002F
:1001D000000000000000000000000000000000001F
:1001E000000000000000000000000000000000000F
:1001F00000000000000000000000000000000000FF
:10020000344935480A1A02D0072291438D463349B2
:1002100033480A1A06D00722914381F30988022243
:1002200082F314882F483049304A00F041F83048B2
:100230003049314A00F03CF830483149314A00F049
:1002400037F831483149324A00F032F83148324902
:10025000324A00F02DF832483249334A00F028F88B
:1002600032483349334A00F023F8334833490022F7
:1002700000F029F832483349002200F024F83248CF
:100280003249091A05F03CFF314A90471F4820497E
:10029000884205D00268043003B4904703BCF7E7F6
:1002A00000208646EC46002000212A4A9047FEE7BF
:1002B000884207D0521A05D0037801300B70013103
:1002C000013AF9D17047884202D002700130FAE752
:1002D000704700000000012000E000200000012025
:1002E00000000120E0660000000000206400002003
:1002F000CC030000CC03000014610000E0660000A5
:1003000000000020000000201461000014610000C3
:100310001461000014610000146100001461000009
:100320001461000014610000E066000044670000F2
:10033000640000206400002064000020B40D002050
:10034000B40D0020B40D0020B40D0020B42D002009
:1003500099030000FD1D0000FEE7FEE7FEE7FEE753
:10036000FEE7FEE7FEE7FEE7FEE7FEE700F002B885
:10037000FFF7FCBF0F484FF00701884385460E4842
:1003800080470E48016841F470010160BFF34F8F50
:10039000BFF36F8FFFF734BF09480A490A4A884202
:1003A00007D0521A05D0037801300B700131013AA1
:1003B000F9D17047000001203524000088ED00E0ED
:0C03C0001461000000000020000000207C
:1003CC0000B583B00190019B1B68184600F0B5F88E
:1003DC000346002B04D105494FF4F67000F09AFC4B
:1003EC004FF0A043184603B05DF804FB1461000005
:1003FC0000B585B00190084611461A4603468DF8A3
:10040C0003300B468DF8023013468DF8013001ABEA
:10041C001846FFF7D5FF03909DF803209DF8023096
:10042C005B001A439DF801309B001A439DF818306D
:10043C001B0242EA03019DF81C301B04019A19436C
:10044C00039B02F5E07243F8221000BF05B05DF883
:10045C0004FB00B585B003900023019300230093A7
:10046C000023012201210398FFF7C2FF00BF05B052
:10047C005DF804FB00B585B003900B468DF80B308E
:10048C009DF80B30002201920022009200220021E4
:10049C000398FFF7ADFF00BF05B05DF804FB00B596
:1004AC0085B0019001AB1846FFF78AFF0390019BC2
:1004BC00012202FA03F31946039800F02AF800BF50
:1004CC0005B05DF804FB00B585B0019001AB184692
:1004DC00FFF776FF0390019B012202FA03F3194602
:1004EC00039800F020F800BF05B05DF804FB00B5E0
:1004FC0083B001900091009B002B03D10198FFF772
:10050C00E2FF02E00198FFF7CAFF00BF03B05DF8FD
:10051C0004FB82B001900091019B009AC3F808255E
:10052C0000BF02B0704782B001900091019B009A0D
:10053C00C3F80C2500BF02B0704784B00190019B3A
:10054C005B09029300230393029B002B03D14FF012
:10055C00FF33039300BF019B03F01F030193039A26
:10056C00019B22FA03F303F00103002B14BF0123B8
:10057C000023DBB2184604B07047000000B583B00E
:10058C000190019B032B03D90749412000F0C2FBCA
:10059C00064A019B13441B7800211846FFF7A7FF5E
:1005AC0000BF03B05DF804FB3C6100006461000017
:1005BC0000B583B00190019B032B03D90749472059
:1005CC0000F0A8FB064A019B13441B780121184636
:1005DC00FFF78DFF00BF03B05DF804FB3C6100002A
:1005EC006461000000B583B00023019305E001981D
:1005FC00FFF7DEFF019B01330193019B032BF6D91F
:10060C0000BF00BF03B05DF804FB000000B583B071
:10061C000023019309E0094A019B13441B781846F7
:10062C00FFF717FF019B01330193019B032BF2D9B9
:10063C00FFF7D8FF00BF03B05DF804FB6461000056
:10064C0000B583B0002301930AE0094A019B1344CF
:10065C001B7803211846FFF70DFF019B0133019313
:10066C00019B032BF1D900BF00BF03B05DF804FB65
:10067C006861000000B583B00190019B03F0010399
:10068C00002B01D0FFF7C2FF019B03F00203002BEC
:10069C0001D0FFF7D5FF00BF03B05DF804FB0000ED
:1006AC0086B003900291019201238DF817309DF8CA
:1006BC001730204A039B13601E4A029B53601D4A4D
:1006CC00019B9360039B44F20102934212D0039B63
:1006DC0044F20202934220D1019B164AD360154B7F
:1006EC00DB681B68134A9361124BDB685B68114A29
:1006FC00D36112E0019B0F4A13610E4B1B699B687F
:10070C000C4A53610B4B1B691B680A4A9361094BDA
:10071C001B695B68074AD36100BF72B600BF00BF9C
:10072C009DF81730DBB2002BFAD162B600BF00BFC8
:10073C0006B070476400002000B583B002900091B1
:10074C00019244F2010071466A4600F003F803B0CE
:10075C0000BD00BF00B587B003900291019272B644
:10076C0000BF039B44F20102934207D0039B44F267
:10077C000202934205D1019B059303E0019B049374
:10078C0000E000BF074B1B6803F00103002B00D0F7
:10079C0000BE019A02990398FFF782FF00BF07B0D1
:1007AC005DF804FBF0ED00E082B00190019B03F0DA
:1007BC000303002B0CBF01230023DBB2184602B04D
:1007CC007047000082B003468DF807309DF8073063
:1007DC009AB2064B1B889A4204D29DF8073001331B
:1007EC00DBB200E00023184602B0704790000020F6
:1007FC0000B583B00B4B1B788DF807300A4B1B7878
:10080C00DBB21846FFF7DEFF03461A469DF80730A9
:10081C0093420CBF01230023DBB2184603B05DF8F2
:10082C0004FB00BF8C0000208D00002082B0084B20
:10083C001B788DF80730074B1B78DBB29DF807202F
:10084C009A420CBF01230023DBB2184602B070475A
:10085C008C0000208D00002000B585B0034600926E
:10086C00ADF806300B46ADF80430BDF8043001335A
:10087C009BB2DB00ADF80E300098FFF795FF0346F6
:10088C0083F00103DBB2002B01D0072317E00E4AE3
:10089C00009B1360BDF80E30009A13440B4A136092
:1008AC000B4B00221A700B4B00221A700A4ABDF82F
:1008BC0006301380094ABDF8043013800023184613
:1008CC0005B05DF804FB00BF840000208800002008
:1008DC008D0000208C0000208E0000209000002055
:1008EC0000B587B003900B460192ADF80A30334B3C
:1008FC001B88BDF80A209A4259D84FF6FF73ADF801
:10090C001230002000F0B0F9FFF772FF0346002B05
:10091C000ED12B4B1B78DBB2ADF81230284B1B7869
:10092C00DBB21846FFF74EFF03461A46244B1A70EB
:10093C00002000F0ADF9BDF812304FF6FF72934273
:10094C0032D0204B1A68BDF81230DB001344019AE8
:10095C001A60039B002B1CD0BDF80A30002B18D05A
:10096C00194B1B68BDF812201449098801FB02F2CF
:10097C001344BDF80A200399184605F031FB114BBE
:10098C001A68BDF81230DB001344BDF80A209A80B7
:10099C0007E00C4B1A68BDF81230DB001344002240
:1009AC009A800023059304E00423059301E00923B6
:1009BC000593059B184607B05DF804FB8E000020DC
:1009CC008D000020840000208800002000231846A1
:1009DC007047000000B585B02FE0204B1B78DBB2D0
:1009EC00ADF80E301E4B1B68BDF80E201D49098852
:1009FC0001FB02F2134402931B4B1A68BDF80E3034
:100A0C00DB0013449B88ADF80630174B1A68BDF811
:100A1C000E30DB0013441B680093BDF80620009BCE
:100A2C001146029898470D4B1B78DBB21846FFF71E
:100A3C00C9FE03461A46094B1A70FFF7C7FF034657
:100A4C0083F00103DBB2002B04D0FFF7EFFE03466B
:100A5C00002BC2D000BF05B05DF804FB8C00002059
:100A6C00880000208E0000208400002000B583B098
:100A7C0003460091ADF80630BDF80630B3F5A07F03
:100A8C000DD1094B1B78002B02D1084B02221A7096
:100A9C00074B1B68074A12681046984700E000BFD6
:100AAC0000BF03B05DF804FB920000209C00002006
:100ABC00940000209800002000B585B0002303931B
:100ACC0000238DF8043000238DF8053000238DF8B9
:100ADC00063006238DF807300023029300238DF88F
:100AEC00053000238DF8063004238DF8043001AB5B
:100AFC00084A1946084800F00DFD0390039B002B93
:100B0C0002D1064B01221A70039B184605B05DF802
:100B1C0004FB00BF790A00006C6100009C000020FF
:100B2C0000B58BB00491039303468DF81730134630
:100B3C00ADF8143000230893049B002B01D10E2335
:100B4C0053E09DF81730012B03D10123ADF826306B
:100B5C000AE09DF81730002B04D14FF48073ADF8E8
:100B6C00263001E0072340E0224B1B78002B01D1FB
:100B7C0008233AE01F4B1B78032B0CD100F046F8EE
:100B8C000890089B0793079B002B04D01A4A8921D5
:100B9C000798FFF7D1FD174B1B78022B02D1174892
:100BAC0000F026FE164A9DF817301370154A049B68
:100BBC001360154A039B1360BDF81420BDF8263052
:100BCC000121009100210D4800F06DFE094B1B78AE
:100BDC00022B03D1094800F0C7FD02E0074800F0E2
:100BEC0095FD044B03221A70002318460BB05DF8D8
:100BFC0004FB00BF9C000020746100006C610000CD
:100C0C0092000020940000209800002008B5064BAC
:100C1C001B78032B05D1054800F0C8FD024B0222BE
:100C2C001A700023184608BD9C0000206C6100005F
:100C3C0072B600BF034B1B680133024A136000BF3E
:100C4C00704700BFA0000020064B1B68013B054A03
:100C5C001360044B1B68002B01D162B600BF00BFB0
:100C6C00704700BFA000002000B583B0019000F0D9
:100C7C0025F80346012B03D00449432000F04AF821
:100C8C00FFF7D6FF00BF03B05DF804FBB4610000B2
:100C9C0000B583B003468DF8073000F00FF803461B
:100CAC00012B03D00449512000F034F8FFF7CCFF9E
:100CBC0000BF03B05DF804FBB461000084B0EFF337
:100CCC0005830193019BC3F308030393039B002B40
:100CDC000DD1EFF314830093009B0293029B03F05E
:100CEC000103002B0CBF01230023DBB200E0012326
:100CFC00184604B07047000008B5044B1B68044A42
:100D0C0012681046984700BF08BD00BFA400002021
:100D1C00A800002000B585B003460091ADF8063060
:100D2C00BDF806300293009B039302AB1A460021D8
:100D3C0044F20200FFF70EFD00BF05B05DF804FBA6
:100D4C0000B583B00346ADF80630BDF80630184642
:100D5C0000F026F803461B68012B0CBF012300236F
:100D6C00DBB2184603B05DF804FB00B585B0034652
:100D7C00ADF80630BDF80630184600F011F8034601
:100D8C001A4600231360BDF80630184600F008F828
:100D9C0003461B680393039B00BF05B05DF804FB7F
:100DAC0082B00346ADF80630BDF8063003F180433F
:100DBC0003F5C043184602B07047000082B00190A2
:100DCC00034BD3F80423019B1340184602B0704721
:100DDC000060004082B00190054A019B03F5A273AC
:100DEC0052F823301B0A03F01F03184602B0704759
:100DFC000060004082B00190064A019B03F5A2738B
:100E0C0052F823301B0C03F00303DBB2184602B07C
:100E1C00704700BF0060004000B583B00190019B9B
:100E2C001B68184600F096F80346002B04D10549C0
:100E3C004FF4F670FFF76EFF4FF0A043184603B067
:100E4C005DF804FB1862000000B585B001900B46FC
:100E5C008DF8033001AB1846FFF7DEFF0390019AC3
:100E6C00039B02F5E07253F82230019A23F44031CF
:100E7C00039B02F5E07243F82210019A039B02F5E2
:100E8C00E07253F822309DF8032012041146019AA7
:100E9C001943039B02F5E07243F8221000BF05B022
:100EAC005DF804FB00B585B0019001AB1846FFF767
:100EBC00B3FF0390019A039B02F5E07253F82230C2
:100ECC001B0C03F00303DBB2184605B05DF804FB02
:100EDC0086B00390029101924FF0A0430493039BC0
:100EEC00059319E0059B9B0018336B4453F8083CA1
:100EFC00D3F82025019B1A60059B9B0018336B448B
:100F0C0053F8083C019A1268C3F82025019B04335E
:100F1C000193059B01330593039A029B1344059A95
:100F2C009A42DFD300BF00BF06B0704700B585B052
:100F3C00019001AB1846FFF76FFF0390019B012254
:100F4C0002FA03F31A46039BC3F8202500BF05B031
:100F5C005DF804FB84B00190019B5B0902930023B4
:100F6C000393029B002B03D14FF0FF33039300BF7D
:100F7C00019B03F01F030193039A019B22FA03F3D5
:100F8C0003F00103002B14BF01230023DBB218462E
:100F9C0004B0704784B001900091009B0393019BB7
:100FAC00DB080293019B03F0070301930122019BD1
:100FBC0002FA03F30399029A0A4412781340184672
:100FCC0004B0704782B00190044A019B1344303343
:100FDC0093F90030184602B0704700BFB0000020F3
:100FEC0082B00190034A019B52F82330184602B09C
:100FFC00704700BFB000002084B00190074A019BED
:10100C001344503393F900308DF80F309DF80F30A6
:10101C0023F0C003184604B0704700BFB000002096
:10102C0084B00190074A019B1344503393F900306C
:10103C008DF80F309DF80F309B09DBB2184604B0C9
:10104C00704700BFB000002000B585B00190019A38
:10105C0001210020FFF73CFF002303930BE0039BCF
:10106C009B00019A13441B68002B01D0012306E05E
:10107C00039B01330393039B002BF0D000231846F2
:10108C0005B05DF804FB000000B587B001900023AB
:10109C0005935BE0344A059B1344503393F90030BD
:1010AC00B3F1FF3F4ED00598FFF7A6FF04900199CE
:1010BC000498FFF76FFF0346002B44D00598FFF709
:1010CC00AFFF03468DF80F300498FFF7EBFE034695
:1010DC008DF80E309DF80E30022B01D1032300E069
:1010EC0002238DF80D309DF80D3019460498FFF74A
:1010FC00ABFE0498FFF71AFF0498FFF763FF034653
:10110C001846FFF76DFF0290029B002B1BD09DF839
:10111C000F30032B0FD09DF80E30022B03D19DF80E
:10112C000F30012B07D09DF80E30032B0BD19DF8FF
:10113C000F30022B07D19DF80F20029B114604980B
:10114C00984700E000BF059B01330593059B032BDB
:10115C00A0D90198FFF778FF0346002B97D100BF69
:10116C0000BF07B05DF804FBB000002000B589B0EB
:10117C0000230793002300934FF48073ADF81630CF
:10118C00012304930023069321E0BDF81630184682
:10119C00FFF7D6FD0346002B0ED00498FFF70EFE8A
:1011AC000346002B08D0BDF816301846FFF7DDFDBE
:1011BC00079A049B13430793049B5B000493BDF8AD
:1011CC0016300433ADF81630069B01330693069B9C
:1011DC00072BDAD94FF4BE70FFF7B2FD0346002B94
:1011EC000DD04FF4BE70FFF7C0FD079B43F00043DA
:1011FC0007936B461A4601210020FFF769FE079BF7
:10120C00DBB2002B29D0012304930023069321E0A9
:10121C00049A079B1340002B16D00698FFF7DAFDB3
:10122C0003900698FFF7E6FD03468DF80B30069801
:10123C00FFF7D6FE0190019B002B05D09DF80B20EB
:10124C00019B114603989847049B5B000493069BF3
:10125C0001330693069B072BDAD9079B002B03DA85
:10126C006B461846FFF710FF00BF09B05DF804FB92
:10127C0082B003468DF807309DF90730002B0CDB4C
:10128C009DF8073003F01F0205499DF907305B09F3
:10129C00012000FA02F241F8232000BF02B070478F
:1012AC0000E100E082B0034600918DF807309DF913
:1012BC000730002B0ADB009BDAB20C499DF9073092
:1012CC005201D2B20B4483F800230BE0009BDAB23C
:1012DC0007499DF8073003F00F03043B5201D2B2CB
:1012EC000B441A7600BF02B0704700BF00E100E06B
:1012FC0000ED00E082B00190019B1B0B5BB2184625
:10130C0002B0704700B583B003460A468DF807302B
:10131C0013468DF806309DF80630072B03D9084983
:10132C006B20FFF7F7FC9DF806209DF9073011465E
:10133C001846FFF7B7FF00BF03B05DF804FB00BF12
:10134C007462000000B583B003468DF807309DF938
:10135C0007301846FFF78CFF00BF03B05DF804FBA5
:10136C0082B001900B468DF803309DF80330019A42
:10137C00134401221A6000BF02B0704784B0019080
:10138C000B46ADF80230BDF80230019A134400222E
:10139C001A60BDF80230019A13441B680393039B37
:1013AC0000BF04B0704782B001900B46ADF802301C
:1013BC00BDF80230019A13441B68002B14BF0123A3
:1013CC000023DBB2184602B0704782B00190009146
:1013DC00019BD3F80022009B1A43019BC3F8002207
:1013EC0000BF02B0704782B001900091019BD3F80E
:1013FC000022009BDB431A40019BC3F8002200BF74
:10140C0002B0704782B001900091019B009AC3F822
:10141C00042300BF02B0704782B001900091019B81
:10142C00009AC3F8082300BF02B0704782B0019045
:10143C000091019BD3F80423009B1340002B14BF95
:10144C0001230023DBB2184602B0704782B0019032
:10145C000B468DF80330019BD3F8043523F00302BF
:10146C009DF8033003F003031A43019BC3F80425D2
:10147C0000BF02B0704782B001900B468DF803306C
:10148C00019BD3F8083523F003029DF8033003F0D9
:10149C0003031A43019BC3F8082500BF02B0704731
:1014AC0082B001900B468DF80330019BD3F81035B8
:1014BC0023F00F029DF8033003F00F031A43019B36
:1014CC00C3F8102500BF02B0704784B003900B46E0
:1014DC0001928DF80B309DF80B20039B02F5A8723E
:1014EC00019943F8221000BF04B0704782B00190FC
:1014FC00019B9B0003F5A0739BB2184602B070478A
:10150C0082B001904FF48032019B02FA03F318462B
:10151C0002B0704710B588B0039002910192039B02
:10152C001B791A4613465B0013449B00704A134404
:10153C000693029B002B03D16E494A20FFF7EAFB6E
:10154C00019B002B03D16B494B20FFF7E3FB069B60
:10155C001B7A002B03D008230593059BC4E0039B47
:10156C001B68654A93420FD1029B9B78012B64D078
:10157C00029B9B78002B60D0029B9B78022B5CD04B
:10158C00029B9B78032B58D0039B1B685B4A9342AE
:10159C000FD1029B9B78012B4FD0029B9B78002B89
:1015AC004BD0029B9B78022B47D0029B9B78032B42
:1015BC0043D0039B1B68524A93420FD1029B9B78EA
:1015CC00012B3AD0029B9B78002B36D0029B9B7848
:1015DC00022B32D0029B9B78032B2ED0039B1B68D3
:1015EC00484A93420FD1029B9B78012B25D0029B3A
:1015FC009B78002B21D0029B9B78022B1DD0029B49
:10160C009B78032B19D0039B1B683F4A93420FD145
:10161C00029B9B78012B10D0029B9B78002B0CD04B
:10162C00029B9B78022B08D0029B9B78032B04D047
:10163C0030495F20FFF76EFB00E000BF069B019A6C
:10164C001A60029B5A68069B5A6000238DF81F3063
:10165C0010E0039B1C689DF81F301846FFF746FFEF
:10166C00034619462046FFF789FE9DF81F300133CB
:10167C008DF81F30039B5B799DF81F209A42E8D3AD
:10168C00039B1B681846FFF735FE03461A46029B60
:10169C00DB7819461046FFF735FE039B1B6818468E
:1016AC00FFF728FE03461846FFF74CFE039B1A680B
:1016BC00029B5B7819461046FFF7C8FE039B1A681D
:1016CC00029B9B7819461046FFF7D5FE039B1A68C0
:1016DC00029B1B7819461046FFF7E2FE069B01227F
:1016EC001A7200230593059B184608B010BD00BF65
:1016FC000C0100209C620000008000400090004023
:10170C0000A0004000A0014000B0014000B583B033
:10171C000190019B1B791946114A0B465B000B4447
:10172C009B00134408331B78012B03D00D498F20E9
:10173C00FFF7F0FA019B1B6800211846FFF710FE1B
:10174C00019B1B791946064A0B465B000B449B0018
:10175C001344083302221A7000BF03B05DF804FB77
:10176C000C0100209C62000000B583B00190019B2D
:10177C001B7919460B4A0B465B000B449B00134428
:10178C0008331B78002B03D10749A520FFF7C2FAB9
:10179C00019B1B6800211846FFF7E2FD00BF03B058
:1017AC005DF804FB0C0100209C62000000B583B0C6
:1017BC000190019B1B7919460B4A0B465B000B44AD
:1017CC009B00134408331B78002B03D10749AC2032
:1017DC00FFF7A0FA019B1B6804211846FFF7C0FD18
:1017EC0000BF03B05DF804FB0C0100209C620000FC
:1017FC0000B583B00190019B1B7919460B4A0B462F
:10180C005B000B449B00134408331B78002B03D163
:10181C000749B320FFF77EFA019B1B680C21184681
:10182C00FFF79EFD00BF03B05DF804FB0C01002028
:10183C009C62000010B586B0039001921A460B46CC
:10184C008DF80B3013468DF80A309DF80B30184686
:10185C00FFF756FE05909DF80A30002B12D0039B23
:10186C001C689DF80B301846FFF740FE03461946DE
:10187C002046FFF783FD039B1B6805991846FFF76D
:10188C00C1FD05E0039B1B6805991846FFF7C4FDD5
:10189C00039B1B689DF80B10019A1846FFF715FE69
:1018AC0000BF06B010BD00B585B0039001921A467A
:1018BC000B468DF80B301346ADF80830039B1868B7
:1018CC009DF80B304FF480729A409DF80B3001213B
:1018DC0001FA03F313431946FFF785FD039B1B68BD
:1018EC00BDF8082011461846FFF76FFD9DF818301B
:1018FC009DF80B10019A0398FFF79CFF00BF05B0F1
:10190C005DF804FB00B587B00390029113468DF887
:10191C00073000238DF8173030E09DF8173018464B
:10192C00FFF7E4FD0346ADF814309DF81730184668
:10193C00FFF7E6FD0490BDF8143019460398FFF745
:10194C0032FD0346002B14D004990398FFF76EFD6B
:10195C000346002B0DD0BDF8143019460398FFF741
:10196C000DFD029B1B68029A5168BDF814201046AD
:10197C0098479DF8173001338DF817309DF81720D4
:10198C009DF807309A42C8D300BF00BF07B05DF87E
:10199C0004FB000008B5042202490348FFF7B2FF1C
:1019AC0000BF08BD0C0100200090004000BF044B9C
:1019BC00D3F80034002BFAD000BF00BF704700BF33
:1019CC0000E0014000B583B001900F4B0222C3F838
:1019DC000425BFF36F8F00BFBFF34F8F00BF0A4AC0
:1019EC00019BC2F80835FFF7E1FF074B0022C3F853
:1019FC000425BFF36F8F00BFBFF34F8F00BF00BF35
:101A0C0003B05DF804FB00BF00E0014000B583B0FB
:101A1C00019000910E4B0122C3F80425BFF36F8F88
:101A2C0000BFBFF34F8F00BF019B009A1A60FFF7F6
:101A3C00BDFF074B0022C3F80425BFF36F8F00BF17
:101A4C00BFF34F8F00BF00BF03B05DF804FB00BFB6
:101A5C0000E0014000B583B001900B468DF80330D7
:101A6C009DF80330002B03D00198FEF787FD02E0B0
:101A7C000198FEF79DFD00BF03B05DF804FB00006C
:101A8C0000B583B0094B1B689B000193074B1B6887
:101A9C009B001A46064B1B681344103B009300989E
:101AAC0004F057F800BF03B05DF804FBA40C002051
:101ABC00A80C002000B583B004F046F80190019BFF
:101ACC009B0803F00303254A1360019B03F00303F7
:101ADC00234A1360214B1B6803F00203002B14BF35
:101AEC0001230023DBB219460320FFF7B3FF1B4B86
:101AFC001B6803F00103002B14BF01230023DBB28E
:101B0C0019460220FFF7A6FF154B1B6803F00203D2
:101B1C00002B14BF01230023DBB219460120FFF771
:101B2C0099FF0F4B1B6803F00103002B14BF01231B
:101B3C000023DBB219460020FFF78CFF074B1B6814
:101B4C00084AD25C064B1B680649CB5C194610460A
:101B5C0003F0BEFE00BF03B05DF804FBA40C002034
:101B6C00A80C0020D062000000B583B0204B1B688D
:101B7C00013303F003031E4A13601D4B1B681D4AFF
:101B8C00D35C8DF807301C4B1B681A4AD25C9DF84D
:101B9C0007301146184603F09BFE154B1B6803F0EB
:101BAC000203002B14BF01230023DBB219460320D0
:101BBC00FFF750FF0E4B1B6803F00103002B14BF03
:101BCC0001230023DBB219460220FFF743FF9DF8E7
:101BDC0007301A460949002001F0FAFAFFF750FFC6
:101BEC00074B00221A7000BF03B05DF804FB00BF66
:101BFC00A40C0020D0620000A80C0020D4620000CD
:101C0C00A10C002000B583B0204B1B68013303F0FE
:101C1C0003031E4A13601D4B1B681D4AD35C8DF8D1
:101C2C0007301C4B1B681A4AD35C9DF807201146E1
:101C3C00184603F04DFE154B1B6803F00203002BF6
:101C4C0014BF01230023DBB219460120FFF702FF6A
:101C5C000E4B1B6803F00103002B14BF0123002360
:101C6C00DBB219460020FFF7F5FE9DF807301A4647
:101C7C000949002001F0ACFAFFF702FF074B0022E4
:101C8C001A7000BF03B05DF804FB00BFA80C002065
:101C9C00D0620000A40C0020EC620000A10C00201B
:101CAC0000B583B00190019B013B032B34D801A2FA
:101CBC0052F823F0D11C0000E31C0000F91C0000BA
:101CCC000B1D0000194A00210020FEF709FE184BDD
:101CDC0001221A7025E003F0DDFE164A00210020D7
:101CEC00FEF7FEFD124B01221A701AE0124A002177
:101CFC000020FEF7F5FD0E4B01221A7011E00F4982
:101D0C00002001F065FA0E4A00210020FEF7E8FDE4
:101D1C00074B01221A7004E00A49002001F058FA1E
:101D2C0000BF00BF03B05DF804FB00BF751B0000D3
:101D3C00A10C0020C15A0000111C0000046300001B
:101D4C000D5200001463000000B585B00190019B9A
:101D5C00302B0EDD019B342B0BDC019B303B0393B2
:101D6C00039A0849002001F033FA0398FFF798FF13
:101D7C0004E00549002001F02BFA00BF00BF05B0BC
:101D8C005DF804FB246300001463000000B583B00D
:101D9C000F49002001F01CFA0E4A0A210420FEF71C
:101DAC005BFD0190019B0093009B002B04D00A4A21
:101DBC00C1210098FEF7C0FC0120FEF75BFC03F08C
:101DCC00ABFDFFF777FE00BF03B05DF804FB00BF6F
:101DDC002C630000180100203C63000008B514219E
:101DEC00024803F027F900BF08BD00BF551D0000D5
:101DFC0008B5FFF7CBFFFFF7F1FFFEF7EBFD03F0A4
:101E0C00EFFDFAE7BFF34F8F00BF064BDB6803F41F
:101E1C00E0620449044B1343CB60BFF34F8F00BF08
:101E2C0000BFFDE700ED00E00400FA0582B01D4B99
:101E3C001B68B3F1FF3F0AD11B4B1B68DBB201934C
:101E4C001A4B1B681B0903F00F03009305E0154B9D
:101E5C001B680193164B1B680093019B062B1DD12D
:101E6C00009B033B042B17D801A252F823F000BFB0
:101E7C00911E0000951E0000991E00009D1E000082
:101E8C00A11E000001230AE0012308E0012306E063
:101E9C00012304E0012302E0012300E000231846A3
:101EAC0002B0704730010010E00F00F0E80F00F0B6
:101EBC003401001082B0174B1B68DBB20193164B38
:101ECC001B681B0903F00F030093019B062B1DD10C
:101EDC00009B033B042B17D801A252F823F000BF40
:101EEC00011F0000051F0000091F00000D1F00004E
:101EFC00111F000001230AE0002308E0002306E084
:101F0C00002304E0002302E0002300E00023184635
:101F1C0002B07047E00F00F0E80F00F082B01D4BEC
:101F2C001B68B3F1FF3F0AD11B4B1B68DBB201935B
:101F3C001A4B1B681B0903F00F03009305E0154BAC
:101F4C001B680193164B1B680093019B062B1DD13C
:101F5C00009B033B042B17D801A252F823F000BFBF
:101F6C00811F0000851F0000891F00008D1F0000CD
:101F7C00911F000001230AE0012308E0012306E081
:101F8C00012304E0012302E0012300E000231846B2
:101F9C0002B0704730010010E00F00F0E80F00F0C5
:101FAC003401001082B0174B1B68DBB20193164B47
:101FBC001B681B0903F00F030093019B062B1DD11B
:101FCC00009B033B042B17D801A252F823F000BF4F
:101FDC00F11F0000F51F0000F91F0000FD1F00009D
:101FEC000120000001230AE0002308E0002306E0A2
:101FFC00002304E0002302E0002300E00023184645
:10200C0002B07047E00F00F0E80F00F082B01D4BFB
:10201C001B68B3F1FF3F0AD11B4B1B68DBB201936A
:10202C001A4B1B681B0903F00F03009305E0154BBB
:10203C001B680193164B1B680093019B062B1DD14B
:10204C00009B033B042B17D801A252F823F000BFCE
:10205C007120000075200000792000007D20000018
:10206C008120000001230AE0012308E0012306E09F
:10207C00012304E0012302E0012300E000231846C1
:10208C0002B0704730010010E00F00F0E80F00F0D4
:10209C003401001082B0174B1B68DBB20193164B56
:1020AC001B681B0903F00F030093019B062B1DD12A
:1020BC00009B033B042B17D801A252F823F000BF5E
:1020CC00E1200000E5200000E9200000ED200000E8
:1020DC00F120000001230AE0002308E0002306E0C1
:1020EC00002304E0002302E0002300E00023184654
:1020FC0002B07047E00F00F0E80F00F082B0174B11
:10210C001B68DBB20193164B1B681B0903F00F0312
:10211C000093019B062B1DD1009B033B042B17D86E
:10212C0001A252F823F000BF492100004D2100000C
:10213C0051210000552100005921000001230AE023
:10214C00002308E0002306E0002304E0002302E063
:10215C00002300E00023184602B07047E00F00F0A7
:10216C00E80F00F082B01D4B1B68B3F1FF3F0AD1A2
:10217C001B4B1B68DBB201931A4B1B681B0903F04A
:10218C000F03009305E0154B1B680193164B1B685E
:10219C000093019B062B1DD1009B033B042B17D8EE
:1021AC0001A252F823F000BFC9210000CD2100008C
:1021BC00D1210000D5210000D921000000230AE024
:1021CC00002308E0012306E0012304E0012302E0E0
:1021DC00012300E00023184602B0704730010010C4
:1021EC00E00F00F0E80F00F03401001082B01D4B3E
:1021FC001B68B3F1FF3F0AD11B4B1B68DBB2019389
:10220C001A4B1B681B0903F00F03009305E0154BD9
:10221C001B680193164B1B680093019B062B1DD169
:10222C00009B033B042B17D801A252F823F000BFEC
:10223C005122000055220000592200005D220000AE
:10224C006122000001230AE0012308E0012306E0DB
:10225C00012304E0012302E0012300E000231846DF
:10226C0002B0704730010010E00F00F0E80F00F0F2
:10227C003401001082B01D4B1B68B3F1FF3F0AD133
:10228C001B4B1B68DBB201931A4B1B681B0903F039
:10229C000F03009305E0154B1B680193164B1B684D
:1022AC000093019B062B1DD1009B033B042B17D8DD
:1022BC0001A252F823F000BFD9220000DD22000059
:1022CC00E1220000E5220000E922000001230AE0DF
:1022DC00012308E0012306E0012304E0012302E0CE
:1022EC00012300E00023184602B0704730010010B3
:1022FC00E00F00F0E80F00F03401001082B0154B35
:10230C001B680193144B1B680093019B062B1DD17A
:10231C00009B033B042B17D801A252F823F000BFFB
:10232C004123000045230000492300004D230000F9
:10233C005123000000230AE0002308E0002306E0FC
:10234C00012304E0012302E0012300E000231846EE
:10235C0002B07047300100103401001082B0154BF0
:10236C001B680193144B1B680093019B062B1DD11A
:10237C00009B033B042B17D801A252F823F000BF9B
:10238C00A1230000A5230000A9230000AD23000019
:10239C00B123000000230AE0002308E0002306E03C
:1023AC00002304E0012302E0012300E0002318468F
:1023BC0002B07047300100103401001008B5FFF76F
:1023CC00CDFF0346002B07D04FF010234FF0804277
:1023DC00D3F80832C2F8583500BF08BD00BF044B13
:1023EC00D3F80034002BFAD000BF00BF704700BFF9
:1023FC0000E0014000B583B00190054A019BC2F892
:10240C000435FFF7EBFF00BF03B05DF804FB00BF22
:10241C0000E00140024B034A1A6000BF704700BF46
:10242C00000000200090D00308B5FFF7FFFC034626
:10243C00002B06D0964B1B681B0A964A03F01F0311
:10244C001360FFF737FD0346002B02D0924B934AE3
:10245C001A60FFF763FD0346002B06D0904B1B68F8
:10246C005B0B904A03F007031360FFF79BFD0346D9
:10247C00002B05D08C4BDB688B4A23F08073D36028
:10248C00FFF7C4FD0346002B0ED04FF08043002213
:10249C00C3F80C214FF080430022C3F810214FF0F9
:1024AC0080430022C3F83825FFF7F4FD0346002BC8
:1024BC0002D07E4B03221A60FFF720FE0346002B4E
:1024CC000BD07B4B05221A607A4B01221A607A4B97
:1024DC0000221A60794B3F221A60FFF743FE034635
:1024EC00002B76D04FF08053754AD3F80434C2F8E1
:1024FC0020354FF08053724AD3F80834C2F8243593
:10250C004FF080536E4AD3F80C34C2F828354FF094
:10251C0080536B4AD3F81034C2F82C354FF08053EB
:10252C00674AD3F81434C2F830354FF08053644AFC
:10253C00D3F81834C2F834354FF08053604AD3F8CE
:10254C001C34C2F840354FF080535D4AD3F8203428
:10255C00C2F844354FF08053594AD3F82434C2F8AA
:10256C0048354FF08053564AD3F82834C2F84C35CE
:10257C004FF08053524AD3F82C34C2F850354FF0F8
:10258C0080534F4AD3F83034C2F854354FF080534F
:10259C004B4AD3F83434C2F860354FF08053484A74
:1025AC00D3F83834C2F864354FF08053444AD3F82A
:1025BC003C34C2F868354FF08053414AD3F840346C
:1025CC00C2F86C354FF080533D4AD3F84434C2F80E
:1025DC007035FFF70BFE0346002B05D0394B1B68FB
:1025EC00394A03F04F031360FFF744FE0346002BF8
:1025FC000DD04FF08043D3F8003403F00103002BCF
:10260C0005D04FF080436FF00102C3F80024FFF7B0
:10261C0075FE0346002B05D02C4B1B682B4A43F44C
:10262C00806313602A4BD3F88830294A43F4700333
:10263C00C2F88830BFF34F8F00BFBFF36F8F00BF5E
:10264C00FFF7BCFE4FF01023D3F80032002B05DB54
:10265C004FF01023D3F80432002B15DA0120FFF7CA
:10266C00C9FE4FF010231522C3F80022FFF7B6FE67
:10267C004FF010231522C3F80422FFF7AFFE002001
:10268C00FFF7B8FEFFF7BEFBFFF7C4FE00BF08BDA7
:10269C00240300104035014074C007400DF0ADBA62
:1026AC00440200103C050040F0ED00E0A0050040A5
:1026BC0010560040885600401856004014560040F2
:1026CC0000C0004058020010E40E00403C170040CF
:1026DC0000ED00E082B0204B0193019B01221A61B6
:1026EC00019B01225A61019B1C4A9A61019B1C4A65
:1026FC00DA61019B4FF400621A62019B00229A621C
:10270C00019B00225A62019B0022DA62019B134A50
:10271C001A63019B134A5A63019B4FF400729A632C
:10272C00019B00221A64019B0022DA63019B0022A8
:10273C005A64019B07330C4A10681860019B0B4AC2
:10274C00106818609188927999809A71019B202267
:10275C009A7100BF02B070479C01002070630000AA
:10276C00E4010020E40900207C6300008063000089
:10277C0000B589B003900291019200230693039B4C
:10278C00DB680593039B1B690493049A059B9A428F
:10279C0005D9049A059BD31A013B079307E0039BC9
:1027AC009A680499059BCB1A1344013B0793039B2E
:1027BC009A68059BD31A079A934228BF134607932E
:1027CC00079A019B934228BF13460793039B5A68B1
:1027DC00059B1344079A0299184603F001FC069ACC
:1027EC00079B13440693029A079B13440293019A86
:1027FC00079BD31A0193059A079B13440593039BDC
:10280C009B68059A9A4201D100230593039B059A74
:10281C00DA60019B002BB5D1069B184609B05DF818
:10282C0004FB00B589B0039002910192039BDB6815
:10283C000793039B9A68079BD31A0693069A019BEE
:10284C009A420ED9039B5A68079B1344019A02992A
:10285C00184603F0C5FB079A019B1A44039BDA60E8
:10286C001AE0069B0593039B5A68079B1344059A31
:10287C000299184603F0B4FB019A069BD31A0593F0
:10288C00039B5868029A069B1344059A194603F059
:10289C00A7FB039B059ADA6000BF09B05DF804FB47
:1028AC0086B00190019B1B690493019BDB68039329
:1028BC00049A039B9A4208D8019B9A68039BD21AEC
:1028CC00049B1344013B059304E0049A039BD31A25
:1028DC00013B0593059B184606B0704700B58BB0BD
:1028EC000390029101923C4B1B78002B01D1FFF716
:1028FC00F1FE039A13465B001344DB003033364A77
:10290C0013440693029B0793069B1B690893069B33
:10291C00DB68059300230993089A059B9A422AD9F0
:10292C00069B9A68089BD31A0493049A019B9342C2
:10293C0028BF13460493069B5A68089B1344049AB9
:10294C001946079803F04CFB099A049B134409930E
:10295C00079A049B13440793019A049BD31A01937F
:10296C00089A049B13440893069B9B68089A9A4206
:10297C0001D100230893059A089BD31A0493049A57
:10298C00019B934228BF13460493049B002B18D041
:10299C00069B5A68089B1344049A1946079803F03F
:1029AC001FFB099A049B13440993079A049B134435
:1029BC000793019A049BD31A0193089A049B13441E
:1029CC000893099B002B02D0069B089A1A61099B5D
:1029DC0018460BB05DF804FB9C01002000B587B0D5
:1029EC000390029101920020FEF73EF9019A0299A0
:1029FC000398FFF773FF05900020FEF749F9059B3C
:102A0C00184607B05DF804FB00B589B0039002913D
:102A1C000192029B0693039B5A1C13465B001344C2
:102A2C00DB00204A13440593059B5B69022B29D0DC
:102A3C00022B2ED8002B02D0012B13D029E00598A5
:102A4C00FFF72EFF0490049A019B9A4202D20023B6
:102A5C00079321E0019B0793019A06990598FFF7CC
:102A6C00E0FE19E00598FFF71BFF0490019A049B08
:102A7C00934228BF13460793079A06990598FFF7C8
:102A8C00D0FE09E0019A06990598FFF771FE0790B0
:102A9C0002E00023079300BF079B184609B05DF8BE
:102AAC0004FB00BF9C01002000B587B0039002918D
:102ABC0001920B4B1B78002B01D1FFF70BFE002072
:102ACC00FEF7D2F8019A02990398FFF79DFF059043
:102ADC000020FEF7DDF8059B184607B05DF804FBF7
:102AEC009C01002000B583B00DF1030301221946AF
:102AFC000020FFF773FF03460193019B012B03D1C9
:102B0C009DF80330019302E04FF0FF330193019BDA
:102B1C00184603B05DF804FB00B585B001900B4678
:102B2C008DF80330019B9B680393039B5A1C019BFC
:102B3C005B689A420FD8019B1A68039B13449DF85B
:102B4C0003201A70039B5A1C019B9A60019BDB6843
:102B5C005A1C019BDA60019B9A68019B5B689A4244
:102B6C0015D1019B1869019B1968019B9B681A463A
:102B7C00FFF79AFF0246019B9B689A4204D0019B87
:102B8C004FF0FF32DA6002E0019B00229A6000BF36
:102B9C0005B05DF804FB000000B58BB0039002910A
:102BAC0001920093029B089301230993012307933D
:102BBC0007E0089A019BB2FBF3F30893079B0133E0
:102BCC000793089A019B9A42F3D2009A079B9A4268
:102BDC0001D9009B07930D9B03F00103002B28D117
:102BEC000C9B002B25D00D9B03F00203002B06D071
:102BFC00009B002B03D130238DF81B3002E02023E7
:102C0C008DF81B300CE00C9B013B0C939DF81B309A
:102C1C0019460398FFF780FF039BDB68002B07DB4B
:102C2C000C9B002B05D0079A0C9B9A42EBD300E02F
:102C3C0000BF039BDB68002B55DB009B012B03D9EA
:102C4C00009B013B009309E0029A099BB2FBF3F352
:102C5C000593059A019B9A4200D205E0099B019AC3
:102C6C0002FB03F30993E8E7029A099BB2FBF3F327
:102C7C000593059B099A02FB03F3029AD31A02935C
:102C8C001B4A059B13441B7819460398FFF744FF16
:102C9C00039BDB68002B08DB099A019BB2FBF3F367
:102CAC000993099B002BDFD100E000BF0D9B03F0C3
:102CBC000103002B17D00C9B002B14D00AE00C9BAB
:102CCC00013B0C9320210398FFF726FF039BDB6845
:102CDC00002B07DB0C9B002B05D0079A0C9B9A4210
:102CEC00EDD300E000BF00BF0BB05DF804FB00BFEC
:102CFC008863000000B589B005900491039202939B
:102D0C00049B002BB8BF5B4206930123079307E09B
:102D1C00039B069A92FBF3F30693079B01330793ED
:102D2C00039B069A9A42F3DA029A079B9A4201D9BC
:102D3C00029B07930A9B002B0AD0049B002B04DBFD
:102D4C000B9B03F00403002B02D00A9B013B0A935C
:102D5C000B9B03F00203002B02D0029B002B1CD018
:102D6C000B9B03F00103002B17D10A9B002B14D0F3
:102D7C000AE00A9B013B0A9320210598FFF7CCFE41
:102D8C00059BDB68002B07DB0A9B002B05D0079A01
:102D9C000A9B9A42EDD300E000BF059BDB68002B39
:102DAC004ADB049B002B07DA049B5B4204932D2126
:102DBC000598FFF7B1FE08E00B9B03F00403002B12
:102DCC0003D02B210598FFF7A7FE059BDB68002B92
:102DDC0032DB0B9B03F00203002B1FD00B9B03F089
:102DEC000103002B1AD1029B002B17D10A9B002B3D
:102DFC0014D00AE00A9B013B0A9330210598FFF797
:102E0C008BFE059BDB68002B07DB0A9B002B05D098
:102E1C00079A0A9B9A42EDD300E000BF059BDB6842
:102E2C00002B09DB04990B9B01930A9B0093029BDB
:102E3C00039A0598FFF7B0FE00BF09B05DF804FBDC
:102E4C0000B5A3B005900491039206AB16934023F2
:102E5C00179300231893059B1A9300231993049B33
:102E6C001B788DF88730049B013304939DF88730D1
:102E7C00002B00F097819DF88730252B40F0868140
:102E8C0000231E9301232093049B1B788DF887301D
:102E9C009DF88730233B0D2B3ED801A252F823F02E
:102EAC00152F0000252F0000252F0000252F0000D6
:102EBC00252F0000252F0000252F0000252F0000B6
:102ECC00052F0000252F0000E52E0000252F000007
:102EDC00252F0000F52E00001E9B43F001031E93CE
:102EEC00049B013304931AE01E9B43F002031E93D0
:102EFC00049B0133049312E01E9B43F004031E93C6
:102F0C00049B013304930AE01E9B43F008031E93B9
:102F1C00049B0133049302E00023209300BF209B09
:102F2C00002BB1D100231D93049B1B788DF88730A7
:102F3C009DF887302F2B12D99DF88730392B0ED85E
:102F4C00049B013304931D9A13469B0013445B00AE
:102F5C001A469DF887301344303B1D93E4E7002359
:102F6C001F93049B1B788DF887309DF887302E2B90
:102F7C001DD1049B01330493049B1B788DF887307F
:102F8C009DF887302F2B12D99DF88730392B0ED80E
:102F9C00049B013304931F9A13469B0013445B005C
:102FAC001A469DF887301344303B1F93E4E7049B8B
:102FBC001B788DF887309DF887306C2B03D09DF8EB
:102FCC008730682B07D1049B01330493049B1B7837
:102FDC008DF88730EFE79DF88730252B00F0CB80FC
:102FEC00252BC0F2CE80782B00F3CB80582BC0F26F
:102FFC00C880583B202B00F2C48001A252F823F069
:10300C00FD3000008F3100008F3100008F31000047
:10301C008F3100008F3100008F3100008F310000A4
:10302C008F3100008F3100008F3100009130000093
:10303C00B53000008F3100008F3100008F3100005F
:10304C008F3100008F3100008F3100008F31000074
:10305C008F3100008F3100008F3100008F31000064
:10306C005F3100008F3100008F31000021310000F2
:10307C008F310000D93000008F3100008F310000FB
:10308C00FD300000039B1B68191D039A11601B681F
:10309C002093209B8DF86F309DF86F2016AB114656
:1030AC001846FFF739FD6DE0039B1B68191D039A49
:1030BC0011601B68209316A81E9B01931D9B009307
:1030CC001F9B0A222099FFF715FE5BE0039B1B68F0
:1030DC00191D039A11601B682093209916A81E9B3A
:1030EC0001931D9B00931F9B0A22FFF755FD49E09E
:1030FC00039B1B68191D039A11601B682093209970
:10310C0016A81E9B01931D9B00931F9B1022FFF77B
:10311C0043FD37E0039B1B68191D039A11601B6864
:10312C001C931C9B1B788DF887301C9B01331C93C4
:10313C009DF88730002B0AD09DF8872016AB1146DE
:10314C001846FFF7E9FC199B002BEADA1AE000BFDE
:10315C0018E0039B1B68191D039A11601B682093D0
:10316C00209916A80023019308230093082310220A
:10317C00FFF712FD06E016AB25211846FFF7CCFC35
:10318C0000E000BF049B0133049306E09DF8872008
:10319C0016AB11461846FFF7BFFC199B002BBFF668
:1031AC005EAE00E000BF199B002B0CDD189B002BC2
:1031BC0005D0189A06AB19460598FFF775FC199BB4
:1031CC00189A13441993199B184623B05DF804FB05
:1031DC000EB400B584B0019006AB029302AB1A4654
:1031EC0005990198FFF72CFE0390039B184604B039
:1031FC005DF804EB03B0704710B586B00346ADF82C
:10320C0006300023ADF8163000230493594B1B688D
:10321C0000225A74574B1B6800229A76554B1B6838
:10322C0000221A83534B1B6800229A62514B1B6875
:10323C000022DA624F4B1B6800221A634D4B1B684D
:10324C0000225A6300F09AF803464B4A934202D08C
:10325C004FF0FF338AE000F0D9FE002000F0BEFCF6
:10326C0004220021242000F0EBFB1E2000F03FFC88
:10327C000346ADF81630BDF816301B0A9AB23D4B1A
:10328C001B68D2B25A72042000F031FC0490049BEB
:10329C00DBB2002B0DD0022212212D2000F0D0FB2E
:1032AC00344B1B681A8B334B1B6842F4805292B21E
:1032BC001A83304B1C68062000F019FC034623606F
:1032CC002C4B1C68072000F012FC03466360BDF811
:1032DC001630DAB2274B1B6802F01F02D2B21A74F6
:1032EC00244B1B681B7C002B03D1224B1B68102228
:1032FC001A74204B1B681B7C184600F0ABFEBDF803
:10330C00063003F00103002B0BD000F03AFC194BF4
:10331C001B681A8B174B1B6842F4006292B21A831B
:10332C0013E00521362000F058FB0346ADF80E30B3
:10333C00BDF80E3023F40073ADF80E30BDF80E302E
:10334C001A460521362000F08FFB012000F046FCC8
:10335C0000220A212C2000F073FB064B1C68002174
:10336C00042000F016FB034663610023184606B0E8
:10337C0010BD00BF040000203001CADE08B50021DA
:10338C00002000F006FB0346184608BD00B587B0C8
:10339C00019000238DF8173000238DF81630019B17
:1033AC001B788DF81330019B5B791A46AC4B33F8C4
:1033BC001230ADF81430019B5B78013B8DF8123064
:1033CC009DF81330042B03D09DF81330072B01D13B
:1033DC00012300E000238DF81130019BDB79002BD9
:1033EC000DD1A04B1B685A699E4B1B6842F480029E
:1033FC005A61BDF81430DB08ADF8143007E0994B76
:10340C001B685A69974B1B6822F480025A61954BD2
:10341C001B68019A127A1A72924B1B685A69914B6B
:10342C001B6822F440325A618E4B1B685969019B10
:10343C001B7A1B0403F440328A4B1B680A435A6103
:10344C00884B1B685B691A460021042000F02BFB9B
:10345C00BDF814301A4642F604012E2000F004FB8D
:10346C009DF81230184600F06DFB9DF813307E4A23
:10347C00D35C1A467D4B53F822301A4607212B2079
:10348C0000F011FB9DF81330774AD35C1A46784B49
:10349C009B5C1A460B212B2000F0D2FA9DF81130C0
:1034AC00744AD35C1A460B21282000F0C9FA9DF807
:1034BC0013306D4AD35C1A466F4B53F822301A46C0
:1034CC000C21282000F0EFFA019BDB791846019BB8
:1034DC009B791946694A43000B4432F813301A465B
:1034EC000221272000F0C0FA9DF81230644A32F80D
:1034FC0013301A460421272000F0B6FA019BDB7921
:10350C00002B05D164220621272000F0ADFA18E02B
:10351C00019B9B78042B0AD110220621272000F056
:10352C00A3FA10222621272000F08AFA09E0202293
:10353C000621272000F098FA28222621272000F0C7
:10354C007FFA9DF81230019AD27811464D4A9B00B1
:10355C000B4452F823301A460821272000F0A3FA16
:10356C00019B5B89002B03D1019B41F241025A81E3
:10357C00019B5B891A462021272000F075FA424BEB
:10358C001B681A460C21232000F08DFA9DF812308E
:10359C003D4A5B0013449B881A460421232000F00B
:1035AC0063FA019B9B79002B0FD0019BDB791A46A8
:1035BC00364B9B5C1A460021212000F041FA032374
:1035CC008DF8173001238DF816309DF8133003F069
:1035DC000F029DF813301B01DBB21A43019B5B7881
:1035EC009B0403F440231A439DF817301B0503F486
:1035FC0040131A439DF816305B0403F400331A434E
:10360C00019B1B799B0503F0F8631343019A5279D4
:10361C00D20613430393039A00211F2000F043FAB0
:10362C00019B9A78019B5B781343DBB21A04019BD4
:10363C00DB795B031A430B4B1B68DA60094B1B6885
:10364C00DB681A460021082000F02DFA42220021E6
:10365C000D2000F0F5F900BF07B05DF804FB00BFCA
:10366C00186400000400002098630000B863000098
:10367C00D0630000D8630000A0630000E863000082
:10368C00F4630000F8630000DC630000E4630000F6
:10369C0000B583B00346ADF80630BDF806301A46C7
:1036AC0041F604012E2000F0DFF900BF03B05DF8F5
:1036BC0004FB00B583B00346ADF80630BDF8063008
:1036CC001A460021182000F0CFF900BF03B05DF8B6
:1036DC0004FB00B583B003460091ADF806301346E9
:1036EC00ADF80430BDF80420BDF806301344B3F532
:1036FC00806F0BDCBDF80630023B1A46BDF8041097
:10370C00009B092000F08CF8002301E04FF0FF3300
:10371C00184603B05DF804FB00B585B00346009273
:10372C00ADF806300B46ADF804300B4B1B68DA686D
:10373C00BDF806301343BDF8042092051343009ADC
:10374C00D20313430393039A0021082000F0ABF932
:10375C0000BF05B05DF804FB0400002000B583B089
:10376C0001900B46ADF802301346ADF80030BDF8B1
:10377C000220BDF80010019B112000F0AFF800BF33
:10378C0003B05DF804FB00B585B00023039301ABD7
:10379C0003222821272000F0A1F8022302930AE03B
:1037AC00039B1B0201A9029A0A4412781344039347
:1037BC00029B013B0293029B002BF1DA039B03F467
:1037CC008013002B06D0039B6FEA03336FEA13338D
:1037DC00039303E0039BC3F314030393039B184667
:1037EC0005B05DF804FB08B50021172000F0D1F8F6
:1037FC000346184608BD00B583B00190019B052215
:10380C000021152000F06AF800BF03B05DF804FB3E
:10381C0008B50021152000F0BCF80346184608BD79
:10382C0000B587B0029201930346ADF80E300B46FB
:10383C00ADF80C3000230593BDF80C30002B0DD1E6
:10384C00BDF80E30DAB2059B591C059162F07F026F
:10385C00D2B218336B4403F8082C34E0BDF80E30A8
:10386C00DAB2059B591C059162F03F02D2B21833B3
:10387C006B4403F8082CBDF80C307F2B0AD8059B41
:10388C005A1C0592BDF80C20D2B218336B4403F8C5
:10389C00082C18E0BDF80C30DAB2059B591C0591C8
:1038AC0062F07F02D2B218336B4403F8082CBDF8D7
:1038BC000C30DB0999B2059B5A1C0592CAB218331D
:1038CC006B4403F8082C059B98B204A9019B029A3F
:1038DC0001F086FA00BF07B05DF804FB00B587B0B5
:1038EC00029201930346ADF80E300B46ADF80C3046
:1038FC0000230593BDF80C30002B0AD1059B5A1CF4
:10390C000592BDF80E20D2B218336B4403F8082C84
:10391C0034E0BDF80E30DAB2059B591C059142F02B
:10392C004002D2B218336B4403F8082CBDF80C30AB
:10393C007F2B0AD8059B5A1C0592BDF80C20D2B2DD
:10394C0018336B4403F8082C18E0BDF80C30DAB2CD
:10395C00059B591C059162F07F02D2B218336B445F
:10396C0003F8082CBDF80C30DB0999B2059B5A1CE6
:10397C000592CAB218336B4403F8082C059B98B215
:10398C0004A9019B029A01F089F900BF07B05DF808
:10399C0004FB00B587B00190009100230593019BB7
:1039AC0098B2009B99B203AB0422FFF797FF032355
:1039BC0004930AE0059B1B0203A9049A0A4412789B
:1039CC0013440593049B013B0493049B002BF1DAF5
:1039DC00059B184607B05DF804FB00B585B0019057
:1039EC0000910023ADF80E30019B98B2009B99B268
:1039FC0003AB0222FFF772FF9DF80D309BB21B0246
:103A0C009AB29DF80C309BB21344ADF80E30BDF851
:103A1C000E30184605B05DF804FB00B585B001907A
:103A2C000091019B98B2009B99B20DF10F030122FA
:103A3C00FFF754FF9DF80F30184605B05DF804FBF6
:103A4C0000B585B00390029113468DF80730039BA7
:103A5C0098B2029B99B20DF107030122FFF7E0FE29
:103A6C0000BF05B05DF804FB00B587B00390029170
:103A7C001346ADF80630BDF80630DBB28DF81430C5
:103A8C00BDF806301B0A9BB2DBB28DF81530039BD8
:103A9C0098B2029B99B205AB0222FFF7C1FE00BFA0
:103AAC0007B05DF804FB00B587B00390029101925A
:103ABC00002305930CE0019BD9B204AA059B134487
:103ACC000A461A70019B1B0A0193059B013305934F
:103ADC00059B032BEFDD039B98B2029B99B204ABC1
:103AEC000422FFF79DFE00BF07B05DF804FB00B594
:103AFC0085B00190019B9BB21A4604212D20FFF743
:103B0C00B3FF032206212D20FFF79AFF0022062186
:103B1C002D20FFF795FF0A212D20FFF73AFF039088
:103B2C00039B184605B05DF804FB08B50022022182
:103B3C002C20FFF785FF022202212C20FFF780FFAB
:103B4C0000BF08BD00B583B001906D2240F60601A0
:103B5C002E20FFF775FF019B002B07D040F2076268
:103B6C0041F606012E20FFF77FFF06E041F20762C7
:103B7C0041F606012E20FFF777FF00BF03B05DF87A
:103B8C0004FB08B50E2000F029F84FF40042062182
:103B9C002D20FFF769FF012001F020FA012000F031
:103BAC001DF800BF08BD00B585B0019000211A209A
:103BBC00FFF7EFFE0390039B1B0D1B050393019B6B
:103BCC00C3F31303039A13430393039A00211A209C
:103BDC00FFF769FF00BF05B05DF804FB00B585B0C9
:103BEC00019003AB022200213620FFF777FE019BE8
:103BFC000E2B00F28D8001A252F823F05B3C0000EA
:103C0C00453C0000753C00001D3D00001D3D0000C2
:103C1C001D3D00001D3D00008F3C0000B73C000026
:103C2C001D3D00001D3D0000D53C0000E53C0000A2
:103C3C00F53C00000F3D000000238DF80C309DF882
:103C4C000D3023F00103DBB28DF80D3061E09DF8EF
:103C5C000C305BB223F003035BB243F001035BB2A5
:103C6C00DBB28DF80C3054E09DF80C305BB223F0D5
:103C7C0003035BB243F002035BB2DBB28DF80C3092
:103C8C0047E09DF80C305BB223F04C035BB243F081
:103C9C0048035BB2DBB28DF80C309DF80D3063F04D
:103CAC007F03DBB28DF80D3033E09DF80C3023F040
:103CBC004C03DBB28DF80C309DF80D3003F07F0314
:103CCC00DBB28DF80D3024E09DF80D3043F002038B
:103CDC00DBB28DF80D301CE09DF80D3023F00203A3
:103CEC00DBB28DF80D3014E09DF80C305BB223F094
:103CFC0030035BB243F020035BB2DBB28DF80C30C7
:103D0C0007E001238DF80C3003238DF80D3000E013
:103D1C0000BF03AB012200213620FFF781FD03AB6E
:103D2C000133012201213620FFF77AFD00BF05B0D7
:103D3C005DF804FB08B50020FFF750FF00220421BA
:103D4C003620FFF791FE00BF08BD00B583B001908F
:103D5C00019A01210A20FFF7A6FE00BF03B05DF80F
:103D6C0004FB000000B585B003468DF80730002336
:103D7C00039300238DF80B300023ADF808309DF829
:103D8C00073003F00203002B0DD080238DF80B308D
:103D9C009DF80B301A4600210D20FFF751FE254BE4
:103DAC001B6801229A769DF8073003F00103002B63
:103DBC002ED09DF80B3043F006038DF80B309DF898
:103DCC000B301A4600210D20FFF73AFE03210F207D
:103DDC00FFF703FE0346ADF80830BDF8083003F4D6
:103DEC008163002B02D1002303931EE040238DF846
:103DFC000B309DF80B301A4600210D20FFF720FEEA
:103E0C000C4B1B6800229A764FF0FF3303930CE0A7
:103E1C009DF80B3043F002038DF80B309DF80B30FE
:103E2C001A4600210D20FFF70BFE039B184605B028
:103E3C005DF804FB0400002000B583B000210E20C7
:103E4C00FFF7A7FD019001F0D3F8009000220021AC
:103E5C000E20FFF728FE402200210D20FFF7F0FD79
:103E6C000B4A00210F20FFF71EFE00F015F8019AF7
:103E7C0000210E20FFF717FE009801F0BCF8054B4F
:103E8C001B6800229A7600BF03B05DF804FB00BFEC
:103E9C00F8FF27240400002000B583B003210F2075
:103EAC00FFF7BBFD03468DF807309DF807209DF802
:103EBC0007305B00534003F08003002B04D0012239
:103ECC0003210D20FFF7BCFD00BF03B05DF804FB20
:103EDC0000B585B00190019B03F00403002B01D1C8
:103EEC00FFF7DAFF4FF48073ADF80E30019B03F04F
:103EFC000103002B05D0BDF80E3043F40073ADF870
:103F0C000E30BDF80E301A4600210D20FFF7ACFD27
:103F1C00019B03F00103002B1CD003210F20FFF7A2
:103F2C007CFD03468DF80D309DF80D3003F0080331
:103F3C00002B0FD0FFF780FF019B03F00203002B37
:103F4C0005D14FF4807200210D20FFF78DFD4FF04D
:103F5C00FF3300E00023184605B05DF804FB0000B9
:103F6C0000B585B00346ADF8063003210420FFF7F9
:103F7C0054FD03468DF80F30BDF80630002B1CD0D5
:103F8C00BDF806301A4600210C20FFF76DFD9DF898
:103F9C000F3043F010038DF80F30144B1B685A6927
:103FAC00124B1B6842F080525A619DF80F301A4632
:103FBC0003210420FFF744FD14E09DF80F3023F09B
:103FCC0010038DF80F30094B1B685A69074B1B689F
:103FDC0022F080525A619DF80F301A4603210420BA
:103FEC00FFF72EFD00BF05B05DF804FB04000020B8
:103FFC0008B5E02203213620FFF722FDF022032131
:10400C003620FFF71DFD00BF08BD000008B5FFF707
:10401C0091FE002200212C20FFF726FD0022062114
:10402C002C20FFF70DFDFFF780FD00220321362029
:10403C00FFF706FD012000F0D1FFF022032136200E
:10404C00FFF7FEFC024B1B6800229A7600BF08BDEE
:10405C000400002000B585B003468DF807309DF9AB
:10406C00073003F01F035BB243F060035BB28DF8C3
:10407C000F309DF80F301A460E212B20FFF7E0FC75
:10408C0000BF05B05DF804FB82B003468DF8073025
:10409C009DF90730002B0CDB9DF8073003F01F0255
:1040AC0005499DF907305B09012000FA02F241F83D
:1040BC00232000BF02B0704700E100E082B003464D
:1040CC008DF807309DF90730002B0DDB9DF807307C
:1040DC0003F01F0206499DF907305B09012000FA25
:1040EC0002F2603341F8232000BF02B0704700BFDA
:1040FC0000E100E082B0034600918DF807309DF995
:10410C000730002B0ADB009BDAB20C499DF9073013
:10411C005201D2B20B4483F800230BE0009BDAB2BD
:10412C0007499DF8073003F00F03043B5201D2B24C
:10413C000B441A7600BF02B0704700BF00E100E0EC
:10414C0000ED00E000B583B003460A468DF8073059
:10415C0013468DF806309DF80630072B04D90D490F
:10416C004FF49270FCF7D6FD9DF806209DF90730B0
:10417C0011461846FFF7BEFF9DF907301846FFF7AA
:10418C009DFF9DF907301846FFF77EFF00BF03B077
:10419C005DF804FB4C64000082B003468DF80730D8
:1041AC009DF90730002B13DB9DF8073003F01F023D
:1041BC0009499DF907305B09012000FA02F220330E
:1041CC0041F82320BFF34F8F00BFBFF36F8F00BFA9
:1041DC0000BF02B0704700BF00E100E084B0019066
:1041EC000B46ADF80230BDF80230019A13440022A0
:1041FC001A60BDF80230019A13441B680393039BA9
:10420C0000BF04B0704782B001900B46ADF802308D
:10421C00BDF80230019A13441B68002B14BF012314
:10422C000023DBB2184602B0704782B001900091B7
:10423C00019B009AC3F8042300BF02B0704782B000
:10424C0001900091019B009AC3F8082300BF02B0B3
:10425C00704782B00190019B0122C3F8002500BF7A
:10426C0002B0704782B00190019B0022C3F8002578
:10427C0000BF02B0704784B003900291019200938A
:10428C00039B029AC3F80825039B019AC3F80C25DB
:10429C00039B009AC3F8102500BF04B0704782B08E
:1042AC0001900B468DF803309DF80320019BC3F859
:1042BC001C2500BF02B0704782B00190019BD3F85F
:1042CC001835DBB2184602B0704782B001900091ED
:1042DC00009A019BC3F8242500BF02B0704784B03C
:1042EC0001900B468DF8033013468DF802309DF883
:1042FC000230002B14BF01230023DBB203939DF883
:10430C000330032B10D0032B13DC012B02D0022B18
:10431C0005D00EE0039B43F0020303930AE0039BDA
:10432C0043F00403039305E0039B43F0060303935C
:10433C0000E000BF019B039AC3F8542500BF04B0F2
:10434C00704700B583B003468DF807309DF90730F0
:10435C001846FFF721FF00BF03B05DF804FB000017
:10436C0000B583B00190019B1B68184600F0A3F8C0
:10437C000346002B04D105494FF4F670FCF7CAFC38
:10438C004FF0A043184603B05DF804FB94640000A2
:10439C0000B585B00190084611461A4603468DF8C3
:1043AC0003300B468DF8023013468DF8013001AB0B
:1043BC001846FFF7D5FF03909DF803209DF80230B7
:1043CC005B001A439DF801309B001A439DF818308E
:1043DC001B0242EA03019DF81C301B04019A19438D
:1043EC00039B02F5E07243F8221000BF05B05DF8A4
:1043FC0004FB00B585B003900023019300230093C8
:10440C000023012201210398FFF7C2FF00BF05B072
:10441C005DF804FB00B585B003900B468DF80B30AE
:10442C009DF80B3000220192002200920022002104
:10443C000398FFF7ADFF00BF05B05DF804FB00B5B6
:10444C0085B0019001AB1846FFF78AFF0390019BE2
:10445C00012202FA03F31946039800F018F800BF82
:10446C0005B05DF804FB00B585B0019001AB1846B2
:10447C00FFF776FF0390019B012202FA03F3194622
:10448C00039800F00EF800BF05B05DF804FB82B095
:10449C0001900091019B009AC3F8082500BF02B05F
:1044AC00704782B001900091019B009AC3F80C25D3
:1044BC0000BF02B0704784B00190019B5B0902936E
:1044CC0000230393029B002B03D14FF0FF33039384
:1044DC0000BF019B03F01F030193039A019B22FA77
:1044EC0003F303F00103002B14BF01230023DBB201
:1044FC00184604B07047000000B58DB005900491CB
:10450C0003920293049B002B03D15F49A820FCF774
:10451C0001FC059B5B791A461346DB0013449B0098
:10452C005A4A13440993099B1B7F002B03D0082381
:10453C000793079BA4E0099B039A1A60099B029AB4
:10454C005A60049B1B7B012B05D8049B1B781846D7
:10455C00FFF789FF04E0049B1B781846FFF76FFFF9
:10456C00049B1B781846002301930023009300231F
:10457C0000220121FFF70CFF049B5B78FF2B09D075
:10458C00049B5B780B930B98FFF76DFF0B98FFF771
:10459C0030FF02E04FF0FF330B93049B9B78FF2B13
:1045AC0007D0049B9B780A9301210A98FFF732FFEE
:1045BC0002E04FF0FF330A93049BDB78FF2B09D00A
:1045CC00049BDB781846FFF73AFF049BDB78184610
:1045DC00FFF70FFF059B5B791946049BD8782B4A94
:1045EC000B46DB000B449B0013441E3302461A702F
:1045FC00059B1B680893049B1B7819460A9B0B9A16
:10460C000898FFF738FE049B9B6819460898FFF73B
:10461C005CFE049B197B049B5B7B1A460898FFF796
:10462C005EFE059B5B791946049B5879174A0B462D
:10463C00DB000B449B0013441F3302461A70099B8A
:10464C001B68002B03D004210898FFF7EEFD089897
:10465C00FFF7FFFD099B1B68002B08D0059B93F906
:10466C000420049B1B7919461046FFF76BFD099B30
:10467C0000225A77099B01221A7700230793079B84
:10468C0018460DB05DF804FBBC6400001C0C002047
:10469C0000B585B00190019B5B791A461346DB008F
:1046AC0013449B00154A13440393039B1B7F002B5D
:1046BC0004D1134940F23110FCF72CFB039B1B680F
:1046CC00002B05D0019B93F904301846FFF739FEF7
:1046DC00019B1B680293039B1B68002B04D04FF0BB
:1046EC00FF310298FFF7ABFD0298FFF7BBFD039B70
:1046FC0000221A7700BF05B05DF804FB1C0C0020EB
:10470C00BC64000000B589B003900291009313467D
:10471C008DF80730029B0493009B06939DF807309D
:10472C008DF814309DF828308DF81C3004AB002225
:10473C001946039800F00EF90346184609B05DF8C7
:10474C0004FB00B583B00190019B9B7FFF2B04D031
:10475C00019B9B7F1846FFF772FE019B00225A7744
:10476C00019B00221A72019B1B68019A02F108003E
:10477C00019A52681146984700BF03B05DF804FBDC
:10478C0000B585B0019000910198FFF795FD0346A7
:10479C008DF80D30009B93F82020009B1B7E9A42D5
:1047AC0009D2009B5B69009A92F8202013449DF873
:1047BC000D20D2B21A70009B93F820300133DAB27C
:1047CC00009B83F82020009B93F820309BB2013390
:1047DC00ADF80E30009B93F8213003F00403DBB2EC
:1047EC00002B17D0009B1B7C9BB2BDF80E209A426D
:1047FC0004D2BDF80E30DAB2009B1A74009B1B7EFB
:10480C009BB2BDF80E209A4204D2BDF80E30DAB23B
:10481C00009B1A76009B1B7C9BB2BDF80E209A4223
:10482C000BD2009BDA68BDF80E3013441B78194686
:10483C000198FFF734FD012322E0009B1B7E9BB205
:10484C00BDF80E209A4207D2009BDB7F19460198D7
:10485C00FFF725FD012313E0009B93F82020009B1C
:10486C001B7C9A4206D3009B93F82020009B1B7E56
:10487C009A4201D2012300E0002303F00103DBB2D2
:10488C00184605B05DF804FB00B585B003900291A5
:10489C000192029B002283F8202004210398FFF749
:1048AC00CEFC4FF484710398FFF798FC019B1B79A5
:1048BC00002B03D0019B1B681B7801E0029BDB7F64
:1048CC0019460398FFF7EBFC019B1B79012B08D9C8
:1048DC00019B1B6801331B7819460398FFF7DFFC1B
:1048EC0009E0019B1B7B012B05D9029BDB7F194641
:1048FC000398FFF7D4FC029B1B68002B04D0042107
:10490C000398FFF792FC20E000BF4FF484710398EA
:10491C00FFF779FC034683F00103DBB2002BF4D1E3
:10492C004FF484710398FFF759FC02990398FFF731
:10493C0027FF0346002BE7D1029B9B7FFF2B04D064
:10494C00029B9B7F1846FFF77AFD00BF05B05DF810
:10495C0004FB000010B586B0039002910192039BFA
:10496C005B791A461346DB0013449B003B4A134405
:10497C000493049B1B7F002B04D1394940F2572030
:10498C00FCF7C8F9029B1B68002B08D1029B1B7912
:10499C00002B04D032494FF41670FCF7BBF9029B84
:1049AC009B68002B08D1029B1B7B002B04D02C494D
:1049BC0040F25920FCF7AEF900230593049B5B7F72
:1049CC00DBB2002B03D011230593059B42E0049B23
:1049DC001B68002B07D0019B03F01403002B02D1A2
:1049EC00049B01225A77049B029A03F10C04134690
:1049FC000FCB84E80F00049A92F821306FF3000378
:104A0C0082F82130049A92F821306FF3410382F836
:104A1C002130049A92F821306FF3820382F821300E
:104A2C00049B9B7FFF2B04D0049B9B7F1846FFF7B6
:104A3C001AFD019B002B05D0049B00225A770623FC
:104A4C00059306E0039B1B68029A04991846FFF72E
:104A5C001BFF059B184606B010BD00BF1C0C0020A8
:104A6C00BC64000000B583B001900091009B1B68F2
:104A7C00002B04D10D494FF43570FCF74BF94FF472
:104A8C0084710198FFF7AAFB00990198FFF778FE53
:104A9C00034683F00103DBB2002B02D00098FFF732
:104AAC0050FE00BF03B05DF804FB00BFBC64000007
:104ABC0000B583B0054B019301994FF04020FFF7EF
:104ACC00D1FF00BF03B05DF804FB00BF1C0C00203D
:104ADC0000B585B00190019B002B0AD0074B43F029
:104AEC0001030393019B9B010293039B029898473C
:104AFC0000E000BF05B05DF804FB00BFA06500003E
:104B0C0000B583B00190019B1B68184600F085F836
:104B1C000346002B04D105494FF4F670FCF7FAF864
:104B2C004FF0A043184603B05DF804FB006500008D
:104B3C0000B585B00190084611461A4603468DF81B
:104B4C0003300B468DF8023013468DF8013001AB63
:104B5C001846FFF7D5FF03909DF803209DF802300F
:104B6C005B001A439DF801309B001A439DF81830E6
:104B7C001B0242EA03019DF81C301B04019A1943E5
:104B8C00039B02F5E07243F8221000BF05B05DF8FC
:104B9C0004FB00B585B00390002301930023009320
:104BAC000023012201210398FFF7C2FF00BF05B0CB
:104BBC005DF804FB00B585B003900B468DF80B3007
:104BCC009DF80B300022019200220092002200215D
:104BDC000398FFF7ADFF00BF05B05DF804FB00B50F
:104BEC0085B0019001AB1846FFF78AFF0390019B3B
:104BFC00012202FA03F31946039800F004F800BFEF
:104C0C0005B05DF804FB82B001900091019B009A05
:104C1C00C3F80C2500BF02B0704784B00190019B13
:104C2C005B09029300230393029B002B03D14FF0EB
:104C3C00FF33039300BF019B03F01F030193039AFF
:104C4C00019B22FA03F303F00103002B14BF012391
:104C5C000023DBB2184604B0704700B583B0019056
:104C6C00019B002B0AD04FF47A70FFF731FF019BA8
:104C7C00013B0193019B002BF5D100E000BF03B079
:104C8C005DF804FB82B001900091034B01221A7075
:104C9C0000BF02B0704700BF400C00202DE9F04F60
:104CAC008FB002AF3961FA60BB600346FB826B4682
:104CBC001E460023FB62FB8AFA681344FB62F96A06
:104CCC000B46013BBB62002339607B604FF0000256
:104CDC004FF000037868C300386843EA50733868B3
:104CEC00C20000238A469B464FF000024FF000039F
:104CFC004FEACB0343EA5A734FEACA02CB1DDB08D7
:104D0C00DB00ADEB030D02AB00337B62F96A0B46A3
:104D1C00013B3B620023884699464FF000024FF05E
:104D2C0000034FEAC90343EA58734FEAC802002351
:104D3C000C461D464FF000024FF00003EB0043EA17
:104D4C005473E200CB1DDB08DB00ADEB030D02ABB3
:104D5C000033FB61FA6A0021786A01F077F9FA6A8C
:104D6C000021F86901F072F97B6ABB61FB8A1A4673
:104D7C003969B86901F034F9FB8ABA691344BB612B
:104D8C00FA680021B86901F061F9134B00221A701E
:104D9C00FB6ADAB2FB6ADBB20093FB69796A0F48F3
:104DAC00FFF7B0FC00BF0C4B1B78DBB283F00103A8
:104DBC00DBB2002BF7D1FB8AFA691344BB61FA68AA
:104DCC00B969B86801F00CF90023B54618463437B8
:104DDC00BD46BDE8F08F00BF400C0020946500007C
:104DEC002DE9F04F8FB002AF3961FA60BB6003461A
:104DFC00FB826B461E460023FB62FB8AFA68134457
:104E0C00FB62F96A0B46013BBB62002339607B6095
:104E1C004FF000024FF000037868C300386843EA93
:104E2C0050733868C20000238A469B464FF000023C
:104E3C004FF000034FEACB0343EA5A734FEACA021E
:104E4C00CB1DDB08DB00ADEB030D02AB00337B624B
:104E5C00F96A0B46013B3B620023884699464FF0AA
:104E6C0000024FF000034FEAC90343EA58734FEABC
:104E7C00C80200230C461D464FF000024FF0000301
:104E8C00EB0043EA5473E200CB1DDB08DB00ADEB17
:104E9C00030D02AB0033FB61FA6A0021786A01F062
:104EAC00D5F8FA6A0021F86901F0D0F87B6ABB6189
:104EBC00FB8A1A463969B86901F092F8FB8ABA691B
:104ECC001344BB61FA68B968B86901F089F80E4BF4
:104EDC0000221A70FB6ADAB2FB6ADBB20093FB6940
:104EEC00796A0A48FFF70EFC00BF074B1B78DBB250
:104EFC0083F00103DBB2002BF7D10023B546184633
:104F0C003437BD46BDE8F08F400C0020946500009E
:104F1C0008B51820FFF73DFE1820FFF760FE0220B1
:104F2C00FFF79BFE00211820FFF744FE0220FFF73D
:104F3C0094FE00BF08BD000010B586B00E4B01AC4E
:104F4C000FCB84E80F0011238DF8073001A9002343
:104F5C000A4A0B48FFF7D0FA0590059B002B04D0AA
:104F6C00084AD4210598FBF7E7FB0220FFF775FEF2
:104F7C0000BF06B010BD00BF74650000914C00006E
:104F8C00946500002865000010B586B00F48FFF747
:104F9C007FFB0F4B01AC0FCB84E80F0011238DF876
:104FAC00073001A900230B4A0848FFF7A5FA059022
:104FBC00059B002B04D0084AE0210598FBF7BCFBAD
:104FCC000220FFF74AFE00BF06B010BD946500003A
:104FDC0084650000914C00002865000000B583B08A
:104FEC0001900198FFF739FE00BF03B05DF804FB98
:104FFC0000231846704782B0019000BF02B0704782
:10500C0000B585B001900A4B1B68002B0BD0FDF747
:10501C0069FD0390039B002B04DB054B1B68039875
:10502C009847F4E700BF00BF05B05DF804FB00BF74
:10503C00440C002000B587B001900091124A019BEE
:10504C001360FBF739FD0590059B0493049B002B23
:10505C0004D00E4A45210498FBF76EFB009B9AB2D4
:10506C0000230B490120FBF75BFD0590059B039387
:10507C00039B002B04D0054A4B210398FBF75CFBE8
:10508C0000BF07B05DF804FB440C0020A8650000CD
:10509C000D5000002DE9F04F85B04C490020FEF773
:1050AC0097F84B4B1B684B4AD25C494B1B684949E0
:1050BC00CB5C1946104600F00BFC474B00229A7053
:1050CC000A224649444800F0F1FF0346002B6DD1FB
:1050DC0000F0FEFA02460B464149C1E90023404B61
:1050EC00D3E900233F49561843F100074FF0000263
:1050FC004FF00003320A42EA07623B0A134603935D
:10510C000398FEF722FE039B00229A4693464FEA31
:10511C001A694FEA0A2828F4FF7424F0010409F0F4
:10512C00FF0544F24803E318009345F10003019393
:10513C002D4BDDE90012C3E90012294BD3E9002302
:10514C002A4800F0FCFA284BD3E90023284800F049
:10515C00F6FA284B1A78284B9A700022264914200C
:10516C00FEF7B7FA012200211420FEF7D5FA002031
:10517C00FEF7F8FD0290029B002B15D100BF002119
:10518C000F20FEF706FC034603F08003002BF6D03D
:10519C00802200210F20FEF786FC164B1B78013372
:1051AC00DAB2144B1A7001E0FEF722FF134B1B68A6
:1051BC00084AD25C064B1B680649CB5C1946104664
:1051CC0000F086FB00BF05B0BDE8F08FEC65000079
:1051DC00A80C0020E8650000AC0C00202800002082
:1051EC00900C002000004C04980C00203E00002085
:1051FC0042000020A00C002034000020A40C002051
:10520C0000B583B0184B1B68184AD25C164B1B6850
:10521C001649CB5C1946104600F05AFB4FF6E85085
:10522C00FEF79EFE0023019304E000F027F8019B9B
:10523C0001330193019B022BF7DD0B4B1B680B4ACF
:10524C00D25C0B4B1B680949CB5C1946104600F02D
:10525C003FFB0020FEF784FE064B00221A7000BFB5
:10526C0003B05DF804FB00BFA40C0020E86500004F
:10527C00A80C0020A10C00200000000000B589B093
:10528C00FEF7DAFD874B1B680133864A1360854BAA
:10529C001B68032B02DD834B01221A60814B1B68B8
:1052AC001A4681490020FDF793FF7E4B1B68184678
:1052BC0000F01CF9802200210F20FEF7F4FB0022E5
:1052CC007A490C20FEF705FA012200210C20FEF78A
:1052DC0023FA0220FEF746FD754B1B680133744A16
:1052EC001360734B1B681A4672490020FDF770FF60
:1052FC0000BF00210F20FEF74CFB03466E4A1360E3
:10530C006D4B1A686D4B1340002BF2D0654B1B682C
:10531C00184600F037F9684B1B6803F48043002BE8
:10532C0000F0A2804FF4804200210F20FEF7BBFB5F
:10533C0000211020FEF72DFB034603F07F0307939B
:10534C00079B142B06D8079B9BB2002219465C487E
:10535C00FEF704FA5A4B00229A700A22594958480F
:10536C0000F0A4FE0346002B78D1574B1B68013389
:10537C00554A1360FEF737FA0690FEF749FA059086
:10538C00FEF701FA0346184600F0D8FD3FA3D3E917
:10539C00002300F015FD02460B461046194600F09E
:1053AC00F9FD0346049301AB1946484800F0F1F9A6
:1053BC006B461946464800F0ECF9059A069BD31A41
:1053CC000393009A019BD31A0293039B07EE903A26
:1053DC00B8EEE77A029B07EE903AF8EEE76AB7EE82
:1053EC00006ADDED047A76EE677A66EEA77A77EEE0
:1053FC00677AB0EE007AC7EE876A16EE900A00F074
:10540C00AFFD24A3D3E9002300F0DAFC02460B46DF
:10541C003049C1E900232F4BD3E900011FA3D3E985
:10542C00002300F0CDFC02460B462B49C1E90023BA
:10543C00294BD3E90001294BD3E9002300F0C0FC30
:10544C0002460B4610461946254BD3E9002300F0C3
:10545C00B3FC02460B462349C1E90023114B1B68E0
:10546C00184600F013F906E01F4A00210F20FEF742
:10547C001AFBFEF7BDFD4FF4FA70FFF7AFFD00BF4E
:10548C0009B05DF804FB00BFAFF30080143BB1130F
:10549C003BB103BEFA48CE3B1835B13D00000013BA
:1054AC0019DDB141880C00200866000008000020BE
:1054BC00800C002014660000600C002000D0272413
:1054CC004C0C002014000020840C0020560C0020F2
:1054DC005A0C0020680C0020780C0020480000209A
:1054EC0050000020700C00200090272482B0019006
:1054FC00019B012B10D11E4B50225A711C4B552273
:10550C009A711C4B5022DA711A4B55221A721A4B93
:10551C001A78174B9A7026E0019B022B10D1144B72
:10552C0043225A71124B48229A71124B4322DA7160
:10553C00104B48221A72114B1A780D4B9A7012E0CC
:10554C00019B032B0FD10A4B42225A71084B41226B
:10555C009A71084B4222DA71064B41221A72084B9F
:10556C001A78034B9A7000BF184602B0704700BF00
:10557C000800002014000020480C0020490C0020DA
:10558C004A0C002082B00190019B012B06D13C4BB0
:10559C001B780133DAB23A4B1A706CE0019B022B88
:1055AC0006D1384B1B780133DAB2364B1A7062E0F5
:1055BC00019B032B06D1344B1B780133DAB2324BEF
:1055CC001A7058E0019B042B06D12D4B1B7801332C
:1055DC00DAB22B4B1A704EE0019B052B06D1294BEE
:1055EC001B780133DAB2274B1A7044E0019B062B6F
:1055FC0006D1254B1B780133DAB2234B1A703AE0F3
:10560C00019B072B06D11E4B1B780133DAB21C4BC6
:10561C001A7030E0019B082B06D11A4B1B78013312
:10562C00DAB2184B1A7026E0019B092B06D1164BE7
:10563C001B780133DAB2144B1A701CE0019B0A2B55
:10564C0006D10F4B1B780133DAB20D4B1A7012E0F6
:10565C00019B0B2B06D10B4B1B780133DAB2094B98
:10566C001A7008E0019B0C2B05D1074B1B780133FA
:10567C00DAB2054B1A7000BF184602B0704700BF73
:10568C00480C0020490C00204A0C002000B583B0C7
:10569C0001900C4BD3E900014FF000020A4B00F0D3
:1056AC008FFB02460B461046194600F021FC0346C0
:1056BC00019A06490020FDF78BFD00BF03B05DF891
:1056CC0004FB00BF700C002000408F4034660000CB
:1056DC00F0B587B04FF000024FF00003CDE9042382
:1056EC0001AB1846FEF787F8042303931EE0DDE9AF
:1056FC0004014FF000024FF000030B0243EA106369
:10570C000202CDE9042301AA039B13441B78DBB2EC
:10571C0000221C461546DDE9042342EA040643EA4E
:10572C000507CDE90467039B013B0393039B002B07
:10573C00DDDADDE904231046194607B0F0BD70B47C
:10574C0087B00390CDE900230023059319E0059B56
:10575C00D900DDE90023C1F12006A1F1200022FAD5
:10576C0001F403FA06F6344323FA00F0044323FA57
:10577C0001F5059B039A1344E2B21A70059B0133A1
:10578C000593059B032BE2DD00BF00BF07B070BC87
:10579C00704784B001900091009B00221A60002396
:1057AC00039310E0009B1B68039A01990A4412783A
:1057BC001146039AD20001FA02F21A44009B1A60B5
:1057CC00039B01330393039B032BEBDD00BF00BF53
:1057DC0004B0704700B583B00190019B1B6818465C
:1057EC0000F056F80346002B04D105494FF4F6702F
:1057FC00FBF790FA4FF0A043184603B05DF804FB9A
:10580C00A866000000B585B00190084611461A46FE
:10581C0003468DF803300B468DF8023013468DF895
:10582C00013001AB1846FFF7D5FF03909DF803201C
:10583C009DF802305B001A439DF801309B001A431F
:10584C009DF818301B0242EA03019DF81C301B0422
:10585C00019A1943039B02F5E07243F8221000BF32
:10586C0005B05DF804FB00B585B003900B468DF8D0
:10587C000B309DF80B300022019200220092002286
:10588C0000210398FFF7BEFF00BF05B05DF804FBD5
:10589C0084B00190019B5B09029300230393029B4C
:1058AC00002B03D14FF0FF33039300BF019B03F098
:1058BC001F030193039A019B22FA03F303F00103E4
:1058CC00002B14BF01230023DBB2184604B0704731
:1058DC0000B585B003460A468DF8073013468DF89F
:1058EC000630FEF7A9FA00211F20FEF752F80246F7
:1058FC009DF807309B0503F0F86313439DF80620D1
:10590C00D20613430393039A00211F20FEF7CBF812
:10591C0000BF05B05DF804FB08B500211320FFF7AC
:10592C00A2FFFFF7F5FAFFF707FB0120FDF764FC78
:10593C000346B3F1FF3F00D1FEE7FFF725FB0B4811
:10594C00FDF724FD44F24800FDF7A2FE44F24800A6
:10595C00FDF7AFFE6420FEF726F90020FEF700FBF2
:10596C00034B00221A7000BF08BD00BF5800002076
:10597C00A10C002000B585B00190012303930CE02D
:10598C00144A039B13441B78DBB21A4612490020BD
:10599C00FDF71EFC039B01330393019B9A1E039B93
:1059AC009A42EDD80D490020FDF712FC094B1B78EB
:1059BC00DBB25A1ED1B2074A11708DF80B309DF82C
:1059CC000B30002B01D000F09DF800BF05B05DF846
:1059DC0004FB00BFAC0C0020D0660000D4660000B5
:1059EC0000B583B00020FEF773FA04E0244B1B785B
:1059FC00DBB2002B40D100210F20FDF7CAFF03467C
:105A0C00204A13601F4B1A681F4B1340002BEDD01C
:105A1C001C4B1B6803F48043002B25D04FF48042B1
:105A2C0000210F20FEF73FF800211020FDF7B1FFF9
:105A3C000190019BC3F309030093009BB3F5806FA6
:105A4C0006D8009B9BB2002219461048FDF786FE33
:105A5C00019B03F40043002B02D0FFF71BFB0CE06F
:105A6C000098FFF787FF08E0094A00210F20FEF796
:105A7C001AF8FEF7BDFA00E000BF03B05DF804FBB6
:105A8C00A10C00202C0D002000D02724AC0C0020F1
:105A9C000090272400B583B07F2205490020FCF735
:105AAC009DFF0346019300BF03B05DF804FB00BFEC
:105ABC00300D002008B5FEF7BFF9802200210F2021
:105ACC00FDF7F1FF00220C497F20FDF702FE0022BA
